{
  "_format": "hh-sol-artifact-1",
  "contractName": "BraGo",
  "sourceName": "contracts/BraGo.sol",
  "abi": [
    {
      "inputs": [],
      "stateMutability": "nonpayable",
      "type": "constructor"
    },
    {
      "inputs": [
        {
          "internalType": "address",
          "name": "spender",
          "type": "address"
        },
        {
          "internalType": "uint256",
          "name": "allowance",
          "type": "uint256"
        },
        {
          "internalType": "uint256",
          "name": "needed",
          "type": "uint256"
        }
      ],
      "name": "ERC20InsufficientAllowance",
      "type": "error"
    },
    {
      "inputs": [
        {
          "internalType": "address",
          "name": "sender",
          "type": "address"
        },
        {
          "internalType": "uint256",
          "name": "balance",
          "type": "uint256"
        },
        {
          "internalType": "uint256",
          "name": "needed",
          "type": "uint256"
        }
      ],
      "name": "ERC20InsufficientBalance",
      "type": "error"
    },
    {
      "inputs": [
        {
          "internalType": "address",
          "name": "approver",
          "type": "address"
        }
      ],
      "name": "ERC20InvalidApprover",
      "type": "error"
    },
    {
      "inputs": [
        {
          "internalType": "address",
          "name": "receiver",
          "type": "address"
        }
      ],
      "name": "ERC20InvalidReceiver",
      "type": "error"
    },
    {
      "inputs": [
        {
          "internalType": "address",
          "name": "sender",
          "type": "address"
        }
      ],
      "name": "ERC20InvalidSender",
      "type": "error"
    },
    {
      "inputs": [
        {
          "internalType": "address",
          "name": "spender",
          "type": "address"
        }
      ],
      "name": "ERC20InvalidSpender",
      "type": "error"
    },
    {
      "inputs": [
        {
          "internalType": "address",
          "name": "owner",
          "type": "address"
        }
      ],
      "name": "OwnableInvalidOwner",
      "type": "error"
    },
    {
      "inputs": [
        {
          "internalType": "address",
          "name": "account",
          "type": "address"
        }
      ],
      "name": "OwnableUnauthorizedAccount",
      "type": "error"
    },
    {
      "anonymous": false,
      "inputs": [
        {
          "indexed": true,
          "internalType": "address",
          "name": "owner",
          "type": "address"
        },
        {
          "indexed": true,
          "internalType": "address",
          "name": "spender",
          "type": "address"
        },
        {
          "indexed": false,
          "internalType": "uint256",
          "name": "value",
          "type": "uint256"
        }
      ],
      "name": "Approval",
      "type": "event"
    },
    {
      "anonymous": false,
      "inputs": [
        {
          "indexed": true,
          "internalType": "address",
          "name": "previousOwner",
          "type": "address"
        },
        {
          "indexed": true,
          "internalType": "address",
          "name": "newOwner",
          "type": "address"
        }
      ],
      "name": "OwnershipTransferred",
      "type": "event"
    },
    {
      "anonymous": false,
      "inputs": [
        {
          "indexed": true,
          "internalType": "address",
          "name": "from",
          "type": "address"
        },
        {
          "indexed": true,
          "internalType": "address",
          "name": "to",
          "type": "address"
        },
        {
          "indexed": false,
          "internalType": "uint256",
          "name": "value",
          "type": "uint256"
        }
      ],
      "name": "Transfer",
      "type": "event"
    },
    {
      "inputs": [
        {
          "internalType": "address",
          "name": "owner",
          "type": "address"
        },
        {
          "internalType": "address",
          "name": "spender",
          "type": "address"
        }
      ],
      "name": "allowance",
      "outputs": [
        {
          "internalType": "uint256",
          "name": "",
          "type": "uint256"
        }
      ],
      "stateMutability": "view",
      "type": "function"
    },
    {
      "inputs": [
        {
          "internalType": "address",
          "name": "spender",
          "type": "address"
        },
        {
          "internalType": "uint256",
          "name": "value",
          "type": "uint256"
        }
      ],
      "name": "approve",
      "outputs": [
        {
          "internalType": "bool",
          "name": "",
          "type": "bool"
        }
      ],
      "stateMutability": "nonpayable",
      "type": "function"
    },
    {
      "inputs": [
        {
          "internalType": "address",
          "name": "account",
          "type": "address"
        }
      ],
      "name": "balanceOf",
      "outputs": [
        {
          "internalType": "uint256",
          "name": "",
          "type": "uint256"
        }
      ],
      "stateMutability": "view",
      "type": "function"
    },
    {
      "inputs": [],
      "name": "decimals",
      "outputs": [
        {
          "internalType": "uint8",
          "name": "",
          "type": "uint8"
        }
      ],
      "stateMutability": "view",
      "type": "function"
    },
    {
      "inputs": [
        {
          "internalType": "address",
          "name": "account",
          "type": "address"
        }
      ],
      "name": "getTokenBalance",
      "outputs": [
        {
          "internalType": "uint256",
          "name": "",
          "type": "uint256"
        }
      ],
      "stateMutability": "view",
      "type": "function"
    },
    {
      "inputs": [
        {
          "internalType": "address",
          "name": "to",
          "type": "address"
        },
        {
          "internalType": "uint256",
          "name": "amount",
          "type": "uint256"
        }
      ],
      "name": "mint",
      "outputs": [],
      "stateMutability": "nonpayable",
      "type": "function"
    },
    {
      "inputs": [],
      "name": "name",
      "outputs": [
        {
          "internalType": "string",
          "name": "",
          "type": "string"
        }
      ],
      "stateMutability": "view",
      "type": "function"
    },
    {
      "inputs": [],
      "name": "owner",
      "outputs": [
        {
          "internalType": "address",
          "name": "",
          "type": "address"
        }
      ],
      "stateMutability": "view",
      "type": "function"
    },
    {
      "inputs": [],
      "name": "renounceOwnership",
      "outputs": [],
      "stateMutability": "nonpayable",
      "type": "function"
    },
    {
      "inputs": [],
      "name": "symbol",
      "outputs": [
        {
          "internalType": "string",
          "name": "",
          "type": "string"
        }
      ],
      "stateMutability": "view",
      "type": "function"
    },
    {
      "inputs": [],
      "name": "totalSupply",
      "outputs": [
        {
          "internalType": "uint256",
          "name": "",
          "type": "uint256"
        }
      ],
      "stateMutability": "view",
      "type": "function"
    },
    {
      "inputs": [
        {
          "internalType": "address",
          "name": "to",
          "type": "address"
        },
        {
          "internalType": "uint256",
          "name": "value",
          "type": "uint256"
        }
      ],
      "name": "transfer",
      "outputs": [
        {
          "internalType": "bool",
          "name": "",
          "type": "bool"
        }
      ],
      "stateMutability": "nonpayable",
      "type": "function"
    },
    {
      "inputs": [
        {
          "internalType": "address",
          "name": "from",
          "type": "address"
        },
        {
          "internalType": "address",
          "name": "to",
          "type": "address"
        },
        {
          "internalType": "uint256",
          "name": "value",
          "type": "uint256"
        }
      ],
      "name": "transferFrom",
      "outputs": [
        {
          "internalType": "bool",
          "name": "",
          "type": "bool"
        }
      ],
      "stateMutability": "nonpayable",
      "type": "function"
    },
    {
      "inputs": [
        {
          "internalType": "address",
          "name": "newOwner",
          "type": "address"
        }
      ],
      "name": "transferOwnership",
      "outputs": [],
      "stateMutability": "nonpayable",
      "type": "function"
    }
  ],
  "bytecode": "0x60806040523480156200001157600080fd5b50336040518060400160405280600581526020017f427261476f0000000000000000000000000000000000000000000000000000008152506040518060400160405280600281526020017f4247000000000000000000000000000000000000000000000000000000000000815250816003908162000090919062000771565b508060049081620000a2919062000771565b505050600073ffffffffffffffffffffffffffffffffffffffff168173ffffffffffffffffffffffffffffffffffffffff16036200011a5760006040517f1e4fbdf70000000000000000000000000000000000000000000000000000000081526004016200011191906200089d565b60405180910390fd5b6200012b816200016b60201b60201c565b506200016533620001416200023160201b60201c565b60ff16620f4240620001549190620008f8565b62ffffff166200023a60201b60201c565b620009e4565b6000600560009054906101000a900473ffffffffffffffffffffffffffffffffffffffff16905081600560006101000a81548173ffffffffffffffffffffffffffffffffffffffff021916908373ffffffffffffffffffffffffffffffffffffffff1602179055508173ffffffffffffffffffffffffffffffffffffffff168173ffffffffffffffffffffffffffffffffffffffff167f8be0079c531659141344cd1fd0a4f28419497f9722a3daafe3b4186f6b6457e060405160405180910390a35050565b60006012905090565b600073ffffffffffffffffffffffffffffffffffffffff168273ffffffffffffffffffffffffffffffffffffffff1603620002af5760006040517fec442f05000000000000000000000000000000000000000000000000000000008152600401620002a691906200089d565b60405180910390fd5b620002c360008383620002c760201b60201c565b5050565b600073ffffffffffffffffffffffffffffffffffffffff168373ffffffffffffffffffffffffffffffffffffffff16036200031d5780600260008282546200031091906200093e565b92505081905550620003f3565b60008060008573ffffffffffffffffffffffffffffffffffffffff1673ffffffffffffffffffffffffffffffffffffffff16815260200190815260200160002054905081811015620003ac578381836040517fe450d38c000000000000000000000000000000000000000000000000000000008152600401620003a3939291906200098a565b60405180910390fd5b8181036000808673ffffffffffffffffffffffffffffffffffffffff1673ffffffffffffffffffffffffffffffffffffffff16815260200190815260200160002081905550505b600073ffffffffffffffffffffffffffffffffffffffff168273ffffffffffffffffffffffffffffffffffffffff16036200043e57806002600082825403925050819055506200048b565b806000808473ffffffffffffffffffffffffffffffffffffffff1673ffffffffffffffffffffffffffffffffffffffff168152602001908152602001600020600082825401925050819055505b8173ffffffffffffffffffffffffffffffffffffffff168373ffffffffffffffffffffffffffffffffffffffff167fddf252ad1be2c89b69c2b068fc378daa952ba7f163c4a11628f55a4df523b3ef83604051620004ea9190620009c7565b60405180910390a3505050565b600081519050919050565b7f4e487b7100000000000000000000000000000000000000000000000000000000600052604160045260246000fd5b7f4e487b7100000000000000000000000000000000000000000000000000000000600052602260045260246000fd5b600060028204905060018216806200057957607f821691505b6020821081036200058f576200058e62000531565b5b50919050565b60008190508160005260206000209050919050565b60006020601f8301049050919050565b600082821b905092915050565b600060088302620005f97fffffffffffffffffffffffffffffffffffffffffffffffffffffffffffffffff82620005ba565b620006058683620005ba565b95508019841693508086168417925050509392505050565b6000819050919050565b6000819050919050565b6000620006526200064c62000646846200061d565b62000627565b6200061d565b9050919050565b6000819050919050565b6200066e8362000631565b620006866200067d8262000659565b848454620005c7565b825550505050565b600090565b6200069d6200068e565b620006aa81848462000663565b505050565b5b81811015620006d257620006c660008262000693565b600181019050620006b0565b5050565b601f8211156200072157620006eb8162000595565b620006f684620005aa565b8101602085101562000706578190505b6200071e6200071585620005aa565b830182620006af565b50505b505050565b600082821c905092915050565b6000620007466000198460080262000726565b1980831691505092915050565b600062000761838362000733565b9150826002028217905092915050565b6200077c82620004f7565b67ffffffffffffffff81111562000798576200079762000502565b5b620007a4825462000560565b620007b1828285620006d6565b600060209050601f831160018114620007e95760008415620007d4578287015190505b620007e0858262000753565b86555062000850565b601f198416620007f98662000595565b60005b828110156200082357848901518255600182019150602085019450602081019050620007fc565b868310156200084357848901516200083f601f89168262000733565b8355505b6001600288020188555050505b505050505050565b600073ffffffffffffffffffffffffffffffffffffffff82169050919050565b6000620008858262000858565b9050919050565b620008978162000878565b82525050565b6000602082019050620008b460008301846200088c565b92915050565b600062ffffff82169050919050565b7f4e487b7100000000000000000000000000000000000000000000000000000000600052601160045260246000fd5b60006200090582620008ba565b91506200091283620008ba565b92508282026200092281620008ba565b9150808214620009375762000936620008c9565b5b5092915050565b60006200094b826200061d565b915062000958836200061d565b9250828201905080821115620009735762000972620008c9565b5b92915050565b62000984816200061d565b82525050565b6000606082019050620009a160008301866200088c565b620009b0602083018562000979565b620009bf604083018462000979565b949350505050565b6000602082019050620009de600083018462000979565b92915050565b6111f780620009f46000396000f3fe608060405234801561001057600080fd5b50600436106100ea5760003560e01c806370a082311161008c57806395d89b411161006657806395d89b411461024d578063a9059cbb1461026b578063dd62ed3e1461029b578063f2fde38b146102cb576100ea565b806370a08231146101f5578063715018a6146102255780638da5cb5b1461022f576100ea565b806323b872dd116100c857806323b872dd1461015b578063313ce5671461018b5780633aecd0e3146101a957806340c10f19146101d9576100ea565b806306fdde03146100ef578063095ea7b31461010d57806318160ddd1461013d575b600080fd5b6100f76102e7565b6040516101049190610e4b565b60405180910390f35b61012760048036038101906101229190610f06565b610379565b6040516101349190610f61565b60405180910390f35b61014561039c565b6040516101529190610f8b565b60405180910390f35b61017560048036038101906101709190610fa6565b6103a6565b6040516101829190610f61565b60405180910390f35b6101936103d5565b6040516101a09190611015565b60405180910390f35b6101c360048036038101906101be9190611030565b6103de565b6040516101d09190610f8b565b60405180910390f35b6101f360048036038101906101ee9190610f06565b6103f0565b005b61020f600480360381019061020a9190611030565b610406565b60405161021c9190610f8b565b60405180910390f35b61022d61044e565b005b610237610462565b604051610244919061106c565b60405180910390f35b61025561048c565b6040516102629190610e4b565b60405180910390f35b61028560048036038101906102809190610f06565b61051e565b6040516102929190610f61565b60405180910390f35b6102b560048036038101906102b09190611087565b610541565b6040516102c29190610f8b565b60405180910390f35b6102e560048036038101906102e09190611030565b6105c8565b005b6060600380546102f6906110f6565b80601f0160208091040260200160405190810160405280929190818152602001828054610322906110f6565b801561036f5780601f106103445761010080835404028352916020019161036f565b820191906000526020600020905b81548152906001019060200180831161035257829003601f168201915b5050505050905090565b60008061038461064e565b9050610391818585610656565b600191505092915050565b6000600254905090565b6000806103b161064e565b90506103be858285610668565b6103c98585856106fc565b60019150509392505050565b60006012905090565b60006103e982610406565b9050919050565b6103f86107f0565b6104028282610877565b5050565b60008060008373ffffffffffffffffffffffffffffffffffffffff1673ffffffffffffffffffffffffffffffffffffffff168152602001908152602001600020549050919050565b6104566107f0565b61046060006108f9565b565b6000600560009054906101000a900473ffffffffffffffffffffffffffffffffffffffff16905090565b60606004805461049b906110f6565b80601f01602080910402602001604051908101604052809291908181526020018280546104c7906110f6565b80156105145780601f106104e957610100808354040283529160200191610514565b820191906000526020600020905b8154815290600101906020018083116104f757829003601f168201915b5050505050905090565b60008061052961064e565b90506105368185856106fc565b600191505092915050565b6000600160008473ffffffffffffffffffffffffffffffffffffffff1673ffffffffffffffffffffffffffffffffffffffff16815260200190815260200160002060008373ffffffffffffffffffffffffffffffffffffffff1673ffffffffffffffffffffffffffffffffffffffff16815260200190815260200160002054905092915050565b6105d06107f0565b600073ffffffffffffffffffffffffffffffffffffffff168173ffffffffffffffffffffffffffffffffffffffff16036106425760006040517f1e4fbdf7000000000000000000000000000000000000000000000000000000008152600401610639919061106c565b60405180910390fd5b61064b816108f9565b50565b600033905090565b61066383838360016109bf565b505050565b60006106748484610541565b90507fffffffffffffffffffffffffffffffffffffffffffffffffffffffffffffffff81146106f657818110156106e6578281836040517ffb8f41b20000000000000000000000000000000000000000000000000000000081526004016106dd93929190611127565b60405180910390fd5b6106f5848484840360006109bf565b5b50505050565b600073ffffffffffffffffffffffffffffffffffffffff168373ffffffffffffffffffffffffffffffffffffffff160361076e5760006040517f96c6fd1e000000000000000000000000000000000000000000000000000000008152600401610765919061106c565b60405180910390fd5b600073ffffffffffffffffffffffffffffffffffffffff168273ffffffffffffffffffffffffffffffffffffffff16036107e05760006040517fec442f050000000000000000000000000000000000000000000000000000000081526004016107d7919061106c565b60405180910390fd5b6107eb838383610b96565b505050565b6107f861064e565b73ffffffffffffffffffffffffffffffffffffffff16610816610462565b73ffffffffffffffffffffffffffffffffffffffff16146108755761083961064e565b6040517f118cdaa700000000000000000000000000000000000000000000000000000000815260040161086c919061106c565b60405180910390fd5b565b600073ffffffffffffffffffffffffffffffffffffffff168273ffffffffffffffffffffffffffffffffffffffff16036108e95760006040517fec442f050000000000000000000000000000000000000000000000000000000081526004016108e0919061106c565b60405180910390fd5b6108f560008383610b96565b5050565b6000600560009054906101000a900473ffffffffffffffffffffffffffffffffffffffff16905081600560006101000a81548173ffffffffffffffffffffffffffffffffffffffff021916908373ffffffffffffffffffffffffffffffffffffffff1602179055508173ffffffffffffffffffffffffffffffffffffffff168173ffffffffffffffffffffffffffffffffffffffff167f8be0079c531659141344cd1fd0a4f28419497f9722a3daafe3b4186f6b6457e060405160405180910390a35050565b600073ffffffffffffffffffffffffffffffffffffffff168473ffffffffffffffffffffffffffffffffffffffff1603610a315760006040517fe602df05000000000000000000000000000000000000000000000000000000008152600401610a28919061106c565b60405180910390fd5b600073ffffffffffffffffffffffffffffffffffffffff168373ffffffffffffffffffffffffffffffffffffffff1603610aa35760006040517f94280d62000000000000000000000000000000000000000000000000000000008152600401610a9a919061106c565b60405180910390fd5b81600160008673ffffffffffffffffffffffffffffffffffffffff1673ffffffffffffffffffffffffffffffffffffffff16815260200190815260200160002060008573ffffffffffffffffffffffffffffffffffffffff1673ffffffffffffffffffffffffffffffffffffffff168152602001908152602001600020819055508015610b90578273ffffffffffffffffffffffffffffffffffffffff168473ffffffffffffffffffffffffffffffffffffffff167f8c5be1e5ebec7d5bd14f71427d1e84f3dd0314c0f7b2291e5b200ac8c7c3b92584604051610b879190610f8b565b60405180910390a35b50505050565b600073ffffffffffffffffffffffffffffffffffffffff168373ffffffffffffffffffffffffffffffffffffffff1603610be8578060026000828254610bdc919061118d565b92505081905550610cbb565b60008060008573ffffffffffffffffffffffffffffffffffffffff1673ffffffffffffffffffffffffffffffffffffffff16815260200190815260200160002054905081811015610c74578381836040517fe450d38c000000000000000000000000000000000000000000000000000000008152600401610c6b93929190611127565b60405180910390fd5b8181036000808673ffffffffffffffffffffffffffffffffffffffff1673ffffffffffffffffffffffffffffffffffffffff16815260200190815260200160002081905550505b600073ffffffffffffffffffffffffffffffffffffffff168273ffffffffffffffffffffffffffffffffffffffff1603610d045780600260008282540392505081905550610d51565b806000808473ffffffffffffffffffffffffffffffffffffffff1673ffffffffffffffffffffffffffffffffffffffff168152602001908152602001600020600082825401925050819055505b8173ffffffffffffffffffffffffffffffffffffffff168373ffffffffffffffffffffffffffffffffffffffff167fddf252ad1be2c89b69c2b068fc378daa952ba7f163c4a11628f55a4df523b3ef83604051610dae9190610f8b565b60405180910390a3505050565b600081519050919050565b600082825260208201905092915050565b60005b83811015610df5578082015181840152602081019050610dda565b60008484015250505050565b6000601f19601f8301169050919050565b6000610e1d82610dbb565b610e278185610dc6565b9350610e37818560208601610dd7565b610e4081610e01565b840191505092915050565b60006020820190508181036000830152610e658184610e12565b905092915050565b600080fd5b600073ffffffffffffffffffffffffffffffffffffffff82169050919050565b6000610e9d82610e72565b9050919050565b610ead81610e92565b8114610eb857600080fd5b50565b600081359050610eca81610ea4565b92915050565b6000819050919050565b610ee381610ed0565b8114610eee57600080fd5b50565b600081359050610f0081610eda565b92915050565b60008060408385031215610f1d57610f1c610e6d565b5b6000610f2b85828601610ebb565b9250506020610f3c85828601610ef1565b9150509250929050565b60008115159050919050565b610f5b81610f46565b82525050565b6000602082019050610f766000830184610f52565b92915050565b610f8581610ed0565b82525050565b6000602082019050610fa06000830184610f7c565b92915050565b600080600060608486031215610fbf57610fbe610e6d565b5b6000610fcd86828701610ebb565b9350506020610fde86828701610ebb565b9250506040610fef86828701610ef1565b9150509250925092565b600060ff82169050919050565b61100f81610ff9565b82525050565b600060208201905061102a6000830184611006565b92915050565b60006020828403121561104657611045610e6d565b5b600061105484828501610ebb565b91505092915050565b61106681610e92565b82525050565b6000602082019050611081600083018461105d565b92915050565b6000806040838503121561109e5761109d610e6d565b5b60006110ac85828601610ebb565b92505060206110bd85828601610ebb565b9150509250929050565b7f4e487b7100000000000000000000000000000000000000000000000000000000600052602260045260246000fd5b6000600282049050600182168061110e57607f821691505b602082108103611121576111206110c7565b5b50919050565b600060608201905061113c600083018661105d565b6111496020830185610f7c565b6111566040830184610f7c565b949350505050565b7f4e487b7100000000000000000000000000000000000000000000000000000000600052601160045260246000fd5b600061119882610ed0565b91506111a383610ed0565b92508282019050808211156111bb576111ba61115e565b5b9291505056fea26469706673582212204becb3c6b02a04dfa2da53a9ba0ffd3fd0d92fdd4dcdd6080b624d2492cb843664736f6c63430008140033",
  "linkReferences": {},
  "deployedLinkReferences": {}
}