{
  "_format": "hh-sol-artifact-1",
  "contractName": "BraGo",
  "sourceName": "contracts/BraGo.sol",
  "abi": [
    {
      "inputs": [
        {
          "internalType": "address",
          "name": "initialOwner",
          "type": "address"
        }
      ],
      "stateMutability": "nonpayable",
      "type": "constructor"
    },
    {
      "inputs": [
        {
          "internalType": "address",
          "name": "spender",
          "type": "address"
        },
        {
          "internalType": "uint256",
          "name": "allowance",
          "type": "uint256"
        },
        {
          "internalType": "uint256",
          "name": "needed",
          "type": "uint256"
        }
      ],
      "name": "ERC20InsufficientAllowance",
      "type": "error"
    },
    {
      "inputs": [
        {
          "internalType": "address",
          "name": "sender",
          "type": "address"
        },
        {
          "internalType": "uint256",
          "name": "balance",
          "type": "uint256"
        },
        {
          "internalType": "uint256",
          "name": "needed",
          "type": "uint256"
        }
      ],
      "name": "ERC20InsufficientBalance",
      "type": "error"
    },
    {
      "inputs": [
        {
          "internalType": "address",
          "name": "approver",
          "type": "address"
        }
      ],
      "name": "ERC20InvalidApprover",
      "type": "error"
    },
    {
      "inputs": [
        {
          "internalType": "address",
          "name": "receiver",
          "type": "address"
        }
      ],
      "name": "ERC20InvalidReceiver",
      "type": "error"
    },
    {
      "inputs": [
        {
          "internalType": "address",
          "name": "sender",
          "type": "address"
        }
      ],
      "name": "ERC20InvalidSender",
      "type": "error"
    },
    {
      "inputs": [
        {
          "internalType": "address",
          "name": "spender",
          "type": "address"
        }
      ],
      "name": "ERC20InvalidSpender",
      "type": "error"
    },
    {
      "inputs": [
        {
          "internalType": "address",
          "name": "owner",
          "type": "address"
        }
      ],
      "name": "OwnableInvalidOwner",
      "type": "error"
    },
    {
      "inputs": [
        {
          "internalType": "address",
          "name": "account",
          "type": "address"
        }
      ],
      "name": "OwnableUnauthorizedAccount",
      "type": "error"
    },
    {
      "anonymous": false,
      "inputs": [
        {
          "indexed": true,
          "internalType": "address",
          "name": "owner",
          "type": "address"
        },
        {
          "indexed": true,
          "internalType": "address",
          "name": "spender",
          "type": "address"
        },
        {
          "indexed": false,
          "internalType": "uint256",
          "name": "value",
          "type": "uint256"
        }
      ],
      "name": "Approval",
      "type": "event"
    },
    {
      "anonymous": false,
      "inputs": [
        {
          "indexed": true,
          "internalType": "address",
          "name": "to",
          "type": "address"
        },
        {
          "indexed": false,
          "internalType": "uint256",
          "name": "amount",
          "type": "uint256"
        },
        {
          "indexed": false,
          "internalType": "string",
          "name": "longitude",
          "type": "string"
        },
        {
          "indexed": false,
          "internalType": "string",
          "name": "latitude",
          "type": "string"
        },
        {
          "indexed": false,
          "internalType": "string",
          "name": "message",
          "type": "string"
        }
      ],
      "name": "BraGoTransfer",
      "type": "event"
    },
    {
      "anonymous": false,
      "inputs": [
        {
          "indexed": true,
          "internalType": "address",
          "name": "previousOwner",
          "type": "address"
        },
        {
          "indexed": true,
          "internalType": "address",
          "name": "newOwner",
          "type": "address"
        }
      ],
      "name": "OwnershipTransferred",
      "type": "event"
    },
    {
      "anonymous": false,
      "inputs": [
        {
          "indexed": true,
          "internalType": "address",
          "name": "from",
          "type": "address"
        },
        {
          "indexed": true,
          "internalType": "address",
          "name": "to",
          "type": "address"
        },
        {
          "indexed": false,
          "internalType": "uint256",
          "name": "value",
          "type": "uint256"
        }
      ],
      "name": "Transfer",
      "type": "event"
    },
    {
      "inputs": [
        {
          "internalType": "address",
          "name": "owner",
          "type": "address"
        },
        {
          "internalType": "address",
          "name": "spender",
          "type": "address"
        }
      ],
      "name": "allowance",
      "outputs": [
        {
          "internalType": "uint256",
          "name": "",
          "type": "uint256"
        }
      ],
      "stateMutability": "view",
      "type": "function"
    },
    {
      "inputs": [
        {
          "internalType": "address",
          "name": "spender",
          "type": "address"
        },
        {
          "internalType": "uint256",
          "name": "value",
          "type": "uint256"
        }
      ],
      "name": "approve",
      "outputs": [
        {
          "internalType": "bool",
          "name": "",
          "type": "bool"
        }
      ],
      "stateMutability": "nonpayable",
      "type": "function"
    },
    {
      "inputs": [
        {
          "internalType": "address",
          "name": "account",
          "type": "address"
        }
      ],
      "name": "balanceOf",
      "outputs": [
        {
          "internalType": "uint256",
          "name": "",
          "type": "uint256"
        }
      ],
      "stateMutability": "view",
      "type": "function"
    },
    {
      "inputs": [],
      "name": "decimals",
      "outputs": [
        {
          "internalType": "uint8",
          "name": "",
          "type": "uint8"
        }
      ],
      "stateMutability": "view",
      "type": "function"
    },
    {
      "inputs": [
        {
          "internalType": "address",
          "name": "to",
          "type": "address"
        },
        {
          "internalType": "uint256",
          "name": "amount",
          "type": "uint256"
        },
        {
          "internalType": "string",
          "name": "longitude",
          "type": "string"
        },
        {
          "internalType": "string",
          "name": "latitude",
          "type": "string"
        },
        {
          "internalType": "string",
          "name": "message",
          "type": "string"
        }
      ],
      "name": "mint",
      "outputs": [],
      "stateMutability": "nonpayable",
      "type": "function"
    },
    {
      "inputs": [],
      "name": "name",
      "outputs": [
        {
          "internalType": "string",
          "name": "",
          "type": "string"
        }
      ],
      "stateMutability": "view",
      "type": "function"
    },
    {
      "inputs": [],
      "name": "owner",
      "outputs": [
        {
          "internalType": "address",
          "name": "",
          "type": "address"
        }
      ],
      "stateMutability": "view",
      "type": "function"
    },
    {
      "inputs": [],
      "name": "renounceOwnership",
      "outputs": [],
      "stateMutability": "nonpayable",
      "type": "function"
    },
    {
      "inputs": [],
      "name": "symbol",
      "outputs": [
        {
          "internalType": "string",
          "name": "",
          "type": "string"
        }
      ],
      "stateMutability": "view",
      "type": "function"
    },
    {
      "inputs": [],
      "name": "totalSupply",
      "outputs": [
        {
          "internalType": "uint256",
          "name": "",
          "type": "uint256"
        }
      ],
      "stateMutability": "view",
      "type": "function"
    },
    {
      "inputs": [
        {
          "internalType": "address",
          "name": "to",
          "type": "address"
        },
        {
          "internalType": "uint256",
          "name": "value",
          "type": "uint256"
        }
      ],
      "name": "transfer",
      "outputs": [
        {
          "internalType": "bool",
          "name": "",
          "type": "bool"
        }
      ],
      "stateMutability": "nonpayable",
      "type": "function"
    },
    {
      "inputs": [
        {
          "internalType": "address",
          "name": "from",
          "type": "address"
        },
        {
          "internalType": "address",
          "name": "to",
          "type": "address"
        },
        {
          "internalType": "uint256",
          "name": "value",
          "type": "uint256"
        }
      ],
      "name": "transferFrom",
      "outputs": [
        {
          "internalType": "bool",
          "name": "",
          "type": "bool"
        }
      ],
      "stateMutability": "nonpayable",
      "type": "function"
    },
    {
      "inputs": [
        {
          "internalType": "address",
          "name": "newOwner",
          "type": "address"
        }
      ],
      "name": "transferOwnership",
      "outputs": [],
      "stateMutability": "nonpayable",
      "type": "function"
    }
  ],
  "bytecode": "0x60806040523480156200001157600080fd5b506040516200200c3803806200200c83398181016040528101906200003791906200058d565b806040518060400160405280600581526020017f427261476f0000000000000000000000000000000000000000000000000000008152506040518060400160405280600281526020017f42470000000000000000000000000000000000000000000000000000000000008152508160039081620000b5919062000839565b508060049081620000c7919062000839565b505050600073ffffffffffffffffffffffffffffffffffffffff168173ffffffffffffffffffffffffffffffffffffffff16036200013f5760006040517f1e4fbdf700000000000000000000000000000000000000000000000000000000815260040162000136919062000931565b60405180910390fd5b62000150816200019760201b60201c565b506200019033620001666200025d60201b60201c565b600a62000174919062000ade565b620186a062000184919062000b2f565b6200026660201b60201c565b5062000c20565b6000600560009054906101000a900473ffffffffffffffffffffffffffffffffffffffff16905081600560006101000a81548173ffffffffffffffffffffffffffffffffffffffff021916908373ffffffffffffffffffffffffffffffffffffffff1602179055508173ffffffffffffffffffffffffffffffffffffffff168173ffffffffffffffffffffffffffffffffffffffff167f8be0079c531659141344cd1fd0a4f28419497f9722a3daafe3b4186f6b6457e060405160405180910390a35050565b60006012905090565b600073ffffffffffffffffffffffffffffffffffffffff168273ffffffffffffffffffffffffffffffffffffffff1603620002db5760006040517fec442f05000000000000000000000000000000000000000000000000000000008152600401620002d2919062000931565b60405180910390fd5b620002ef60008383620002f360201b60201c565b5050565b600073ffffffffffffffffffffffffffffffffffffffff168373ffffffffffffffffffffffffffffffffffffffff1603620003495780600260008282546200033c919062000b7a565b925050819055506200041f565b60008060008573ffffffffffffffffffffffffffffffffffffffff1673ffffffffffffffffffffffffffffffffffffffff16815260200190815260200160002054905081811015620003d8578381836040517fe450d38c000000000000000000000000000000000000000000000000000000008152600401620003cf9392919062000bc6565b60405180910390fd5b8181036000808673ffffffffffffffffffffffffffffffffffffffff1673ffffffffffffffffffffffffffffffffffffffff16815260200190815260200160002081905550505b600073ffffffffffffffffffffffffffffffffffffffff168273ffffffffffffffffffffffffffffffffffffffff16036200046a5780600260008282540392505081905550620004b7565b806000808473ffffffffffffffffffffffffffffffffffffffff1673ffffffffffffffffffffffffffffffffffffffff168152602001908152602001600020600082825401925050819055505b8173ffffffffffffffffffffffffffffffffffffffff168373ffffffffffffffffffffffffffffffffffffffff167fddf252ad1be2c89b69c2b068fc378daa952ba7f163c4a11628f55a4df523b3ef8360405162000516919062000c03565b60405180910390a3505050565b600080fd5b600073ffffffffffffffffffffffffffffffffffffffff82169050919050565b6000620005558262000528565b9050919050565b620005678162000548565b81146200057357600080fd5b50565b60008151905062000587816200055c565b92915050565b600060208284031215620005a657620005a562000523565b5b6000620005b68482850162000576565b91505092915050565b600081519050919050565b7f4e487b7100000000000000000000000000000000000000000000000000000000600052604160045260246000fd5b7f4e487b7100000000000000000000000000000000000000000000000000000000600052602260045260246000fd5b600060028204905060018216806200064157607f821691505b602082108103620006575762000656620005f9565b5b50919050565b60008190508160005260206000209050919050565b60006020601f8301049050919050565b600082821b905092915050565b600060088302620006c17fffffffffffffffffffffffffffffffffffffffffffffffffffffffffffffffff8262000682565b620006cd868362000682565b95508019841693508086168417925050509392505050565b6000819050919050565b6000819050919050565b60006200071a620007146200070e84620006e5565b620006ef565b620006e5565b9050919050565b6000819050919050565b6200073683620006f9565b6200074e620007458262000721565b8484546200068f565b825550505050565b600090565b6200076562000756565b620007728184846200072b565b505050565b5b818110156200079a576200078e6000826200075b565b60018101905062000778565b5050565b601f821115620007e957620007b3816200065d565b620007be8462000672565b81016020851015620007ce578190505b620007e6620007dd8562000672565b83018262000777565b50505b505050565b600082821c905092915050565b60006200080e60001984600802620007ee565b1980831691505092915050565b6000620008298383620007fb565b9150826002028217905092915050565b6200084482620005bf565b67ffffffffffffffff81111562000860576200085f620005ca565b5b6200086c825462000628565b620008798282856200079e565b600060209050601f831160018114620008b157600084156200089c578287015190505b620008a885826200081b565b86555062000918565b601f198416620008c1866200065d565b60005b82811015620008eb57848901518255600182019150602085019450602081019050620008c4565b868310156200090b578489015162000907601f891682620007fb565b8355505b6001600288020188555050505b505050505050565b6200092b8162000548565b82525050565b600060208201905062000948600083018462000920565b92915050565b7f4e487b7100000000000000000000000000000000000000000000000000000000600052601160045260246000fd5b60008160011c9050919050565b6000808291508390505b6001851115620009dc57808604811115620009b457620009b36200094e565b5b6001851615620009c45780820291505b8081029050620009d4856200097d565b945062000994565b94509492505050565b600082620009f7576001905062000aca565b8162000a07576000905062000aca565b816001811462000a20576002811462000a2b5762000a61565b600191505062000aca565b60ff84111562000a405762000a3f6200094e565b5b8360020a91508482111562000a5a5762000a596200094e565b5b5062000aca565b5060208310610133831016604e8410600b841016171562000a9b5782820a90508381111562000a955762000a946200094e565b5b62000aca565b62000aaa84848460016200098a565b9250905081840481111562000ac45762000ac36200094e565b5b81810290505b9392505050565b600060ff82169050919050565b600062000aeb82620006e5565b915062000af88362000ad1565b925062000b277fffffffffffffffffffffffffffffffffffffffffffffffffffffffffffffffff8484620009e5565b905092915050565b600062000b3c82620006e5565b915062000b4983620006e5565b925082820262000b5981620006e5565b9150828204841483151762000b735762000b726200094e565b5b5092915050565b600062000b8782620006e5565b915062000b9483620006e5565b925082820190508082111562000baf5762000bae6200094e565b5b92915050565b62000bc081620006e5565b82525050565b600060608201905062000bdd600083018662000920565b62000bec602083018562000bb5565b62000bfb604083018462000bb5565b949350505050565b600060208201905062000c1a600083018462000bb5565b92915050565b6113dc8062000c306000396000f3fe608060405234801561001057600080fd5b50600436106100cf5760003560e01c8063715018a61161008c578063a9059cbb11610066578063a9059cbb14610204578063b35cc18614610234578063dd62ed3e14610250578063f2fde38b14610280576100cf565b8063715018a6146101be5780638da5cb5b146101c857806395d89b41146101e6576100cf565b806306fdde03146100d4578063095ea7b3146100f257806318160ddd1461012257806323b872dd14610140578063313ce5671461017057806370a082311461018e575b600080fd5b6100dc61029c565b6040516100e99190610e4e565b60405180910390f35b61010c60048036038101906101079190610f0e565b61032e565b6040516101199190610f69565b60405180910390f35b61012a610351565b6040516101379190610f93565b60405180910390f35b61015a60048036038101906101559190610fae565b61035b565b6040516101679190610f69565b60405180910390f35b61017861038a565b604051610185919061101d565b60405180910390f35b6101a860048036038101906101a39190611038565b610393565b6040516101b59190610f93565b60405180910390f35b6101c66103db565b005b6101d06103ef565b6040516101dd9190611074565b60405180910390f35b6101ee610419565b6040516101fb9190610e4e565b60405180910390f35b61021e60048036038101906102199190610f0e565b6104ab565b60405161022b9190610f69565b60405180910390f35b61024e600480360381019061024991906110f4565b6104ce565b005b61026a600480360381019061026591906111d0565b610544565b6040516102779190610f93565b60405180910390f35b61029a60048036038101906102959190611038565b6105cb565b005b6060600380546102ab9061123f565b80601f01602080910402602001604051908101604052809291908181526020018280546102d79061123f565b80156103245780601f106102f957610100808354040283529160200191610324565b820191906000526020600020905b81548152906001019060200180831161030757829003601f168201915b5050505050905090565b600080610339610651565b9050610346818585610659565b600191505092915050565b6000600254905090565b600080610366610651565b905061037385828561066b565b61037e8585856106ff565b60019150509392505050565b60006012905090565b60008060008373ffffffffffffffffffffffffffffffffffffffff1673ffffffffffffffffffffffffffffffffffffffff168152602001908152602001600020549050919050565b6103e36107f3565b6103ed600061087a565b565b6000600560009054906101000a900473ffffffffffffffffffffffffffffffffffffffff16905090565b6060600480546104289061123f565b80601f01602080910402602001604051908101604052809291908181526020018280546104549061123f565b80156104a15780601f10610476576101008083540402835291602001916104a1565b820191906000526020600020905b81548152906001019060200180831161048457829003601f168201915b5050505050905090565b6000806104b6610651565b90506104c38185856106ff565b600191505092915050565b6104d66107f3565b6104e08888610940565b8773ffffffffffffffffffffffffffffffffffffffff167fceccb220c9ebdf5dc8f43883f2740e719dfa480c0d48b0171ea108d8c3a1a3bc8888888888888860405161053297969594939291906112ac565b60405180910390a25050505050505050565b6000600160008473ffffffffffffffffffffffffffffffffffffffff1673ffffffffffffffffffffffffffffffffffffffff16815260200190815260200160002060008373ffffffffffffffffffffffffffffffffffffffff1673ffffffffffffffffffffffffffffffffffffffff16815260200190815260200160002054905092915050565b6105d36107f3565b600073ffffffffffffffffffffffffffffffffffffffff168173ffffffffffffffffffffffffffffffffffffffff16036106455760006040517f1e4fbdf700000000000000000000000000000000000000000000000000000000815260040161063c9190611074565b60405180910390fd5b61064e8161087a565b50565b600033905090565b61066683838360016109c2565b505050565b60006106778484610544565b90507fffffffffffffffffffffffffffffffffffffffffffffffffffffffffffffffff81146106f957818110156106e9578281836040517ffb8f41b20000000000000000000000000000000000000000000000000000000081526004016106e09392919061130c565b60405180910390fd5b6106f8848484840360006109c2565b5b50505050565b600073ffffffffffffffffffffffffffffffffffffffff168373ffffffffffffffffffffffffffffffffffffffff16036107715760006040517f96c6fd1e0000000000000000000000000000000000000000000000000000000081526004016107689190611074565b60405180910390fd5b600073ffffffffffffffffffffffffffffffffffffffff168273ffffffffffffffffffffffffffffffffffffffff16036107e35760006040517fec442f050000000000000000000000000000000000000000000000000000000081526004016107da9190611074565b60405180910390fd5b6107ee838383610b99565b505050565b6107fb610651565b73ffffffffffffffffffffffffffffffffffffffff166108196103ef565b73ffffffffffffffffffffffffffffffffffffffff16146108785761083c610651565b6040517f118cdaa700000000000000000000000000000000000000000000000000000000815260040161086f9190611074565b60405180910390fd5b565b6000600560009054906101000a900473ffffffffffffffffffffffffffffffffffffffff16905081600560006101000a81548173ffffffffffffffffffffffffffffffffffffffff021916908373ffffffffffffffffffffffffffffffffffffffff1602179055508173ffffffffffffffffffffffffffffffffffffffff168173ffffffffffffffffffffffffffffffffffffffff167f8be0079c531659141344cd1fd0a4f28419497f9722a3daafe3b4186f6b6457e060405160405180910390a35050565b600073ffffffffffffffffffffffffffffffffffffffff168273ffffffffffffffffffffffffffffffffffffffff16036109b25760006040517fec442f050000000000000000000000000000000000000000000000000000000081526004016109a99190611074565b60405180910390fd5b6109be60008383610b99565b5050565b600073ffffffffffffffffffffffffffffffffffffffff168473ffffffffffffffffffffffffffffffffffffffff1603610a345760006040517fe602df05000000000000000000000000000000000000000000000000000000008152600401610a2b9190611074565b60405180910390fd5b600073ffffffffffffffffffffffffffffffffffffffff168373ffffffffffffffffffffffffffffffffffffffff1603610aa65760006040517f94280d62000000000000000000000000000000000000000000000000000000008152600401610a9d9190611074565b60405180910390fd5b81600160008673ffffffffffffffffffffffffffffffffffffffff1673ffffffffffffffffffffffffffffffffffffffff16815260200190815260200160002060008573ffffffffffffffffffffffffffffffffffffffff1673ffffffffffffffffffffffffffffffffffffffff168152602001908152602001600020819055508015610b93578273ffffffffffffffffffffffffffffffffffffffff168473ffffffffffffffffffffffffffffffffffffffff167f8c5be1e5ebec7d5bd14f71427d1e84f3dd0314c0f7b2291e5b200ac8c7c3b92584604051610b8a9190610f93565b60405180910390a35b50505050565b600073ffffffffffffffffffffffffffffffffffffffff168373ffffffffffffffffffffffffffffffffffffffff1603610beb578060026000828254610bdf9190611372565b92505081905550610cbe565b60008060008573ffffffffffffffffffffffffffffffffffffffff1673ffffffffffffffffffffffffffffffffffffffff16815260200190815260200160002054905081811015610c77578381836040517fe450d38c000000000000000000000000000000000000000000000000000000008152600401610c6e9392919061130c565b60405180910390fd5b8181036000808673ffffffffffffffffffffffffffffffffffffffff1673ffffffffffffffffffffffffffffffffffffffff16815260200190815260200160002081905550505b600073ffffffffffffffffffffffffffffffffffffffff168273ffffffffffffffffffffffffffffffffffffffff1603610d075780600260008282540392505081905550610d54565b806000808473ffffffffffffffffffffffffffffffffffffffff1673ffffffffffffffffffffffffffffffffffffffff168152602001908152602001600020600082825401925050819055505b8173ffffffffffffffffffffffffffffffffffffffff168373ffffffffffffffffffffffffffffffffffffffff167fddf252ad1be2c89b69c2b068fc378daa952ba7f163c4a11628f55a4df523b3ef83604051610db19190610f93565b60405180910390a3505050565b600081519050919050565b600082825260208201905092915050565b60005b83811015610df8578082015181840152602081019050610ddd565b60008484015250505050565b6000601f19601f8301169050919050565b6000610e2082610dbe565b610e2a8185610dc9565b9350610e3a818560208601610dda565b610e4381610e04565b840191505092915050565b60006020820190508181036000830152610e688184610e15565b905092915050565b600080fd5b600080fd5b600073ffffffffffffffffffffffffffffffffffffffff82169050919050565b6000610ea582610e7a565b9050919050565b610eb581610e9a565b8114610ec057600080fd5b50565b600081359050610ed281610eac565b92915050565b6000819050919050565b610eeb81610ed8565b8114610ef657600080fd5b50565b600081359050610f0881610ee2565b92915050565b60008060408385031215610f2557610f24610e70565b5b6000610f3385828601610ec3565b9250506020610f4485828601610ef9565b9150509250929050565b60008115159050919050565b610f6381610f4e565b82525050565b6000602082019050610f7e6000830184610f5a565b92915050565b610f8d81610ed8565b82525050565b6000602082019050610fa86000830184610f84565b92915050565b600080600060608486031215610fc757610fc6610e70565b5b6000610fd586828701610ec3565b9350506020610fe686828701610ec3565b9250506040610ff786828701610ef9565b9150509250925092565b600060ff82169050919050565b61101781611001565b82525050565b6000602082019050611032600083018461100e565b92915050565b60006020828403121561104e5761104d610e70565b5b600061105c84828501610ec3565b91505092915050565b61106e81610e9a565b82525050565b60006020820190506110896000830184611065565b92915050565b600080fd5b600080fd5b600080fd5b60008083601f8401126110b4576110b361108f565b5b8235905067ffffffffffffffff8111156110d1576110d0611094565b5b6020830191508360018202830111156110ed576110ec611099565b5b9250929050565b60008060008060008060008060a0898b03121561111457611113610e70565b5b60006111228b828c01610ec3565b98505060206111338b828c01610ef9565b975050604089013567ffffffffffffffff81111561115457611153610e75565b5b6111608b828c0161109e565b9650965050606089013567ffffffffffffffff81111561118357611182610e75565b5b61118f8b828c0161109e565b9450945050608089013567ffffffffffffffff8111156111b2576111b1610e75565b5b6111be8b828c0161109e565b92509250509295985092959890939650565b600080604083850312156111e7576111e6610e70565b5b60006111f585828601610ec3565b925050602061120685828601610ec3565b9150509250929050565b7f4e487b7100000000000000000000000000000000000000000000000000000000600052602260045260246000fd5b6000600282049050600182168061125757607f821691505b60208210810361126a57611269611210565b5b50919050565b82818337600083830152505050565b600061128b8385610dc9565b9350611298838584611270565b6112a183610e04565b840190509392505050565b60006080820190506112c1600083018a610f84565b81810360208301526112d481888a61127f565b905081810360408301526112e981868861127f565b905081810360608301526112fe81848661127f565b905098975050505050505050565b60006060820190506113216000830186611065565b61132e6020830185610f84565b61133b6040830184610f84565b949350505050565b7f4e487b7100000000000000000000000000000000000000000000000000000000600052601160045260246000fd5b600061137d82610ed8565b915061138883610ed8565b92508282019050808211156113a05761139f611343565b5b9291505056fea2646970667358221220c5bc3332b7d7e6ce888f0ad5db3898d42a0e0f7c8d4e18882743cc9b3219e01b64736f6c63430008140033",
  "linkReferences": {},
  "deployedLinkReferences": {}
}