{
  "_format": "hh-sol-artifact-1",
  "contractName": "BraGo",
  "sourceName": "contracts/BraGo.sol",
  "abi": [
    {
      "inputs": [],
      "stateMutability": "nonpayable",
      "type": "constructor"
    },
    {
      "inputs": [
        {
          "internalType": "address",
          "name": "spender",
          "type": "address"
        },
        {
          "internalType": "uint256",
          "name": "allowance",
          "type": "uint256"
        },
        {
          "internalType": "uint256",
          "name": "needed",
          "type": "uint256"
        }
      ],
      "name": "ERC20InsufficientAllowance",
      "type": "error"
    },
    {
      "inputs": [
        {
          "internalType": "address",
          "name": "sender",
          "type": "address"
        },
        {
          "internalType": "uint256",
          "name": "balance",
          "type": "uint256"
        },
        {
          "internalType": "uint256",
          "name": "needed",
          "type": "uint256"
        }
      ],
      "name": "ERC20InsufficientBalance",
      "type": "error"
    },
    {
      "inputs": [
        {
          "internalType": "address",
          "name": "approver",
          "type": "address"
        }
      ],
      "name": "ERC20InvalidApprover",
      "type": "error"
    },
    {
      "inputs": [
        {
          "internalType": "address",
          "name": "receiver",
          "type": "address"
        }
      ],
      "name": "ERC20InvalidReceiver",
      "type": "error"
    },
    {
      "inputs": [
        {
          "internalType": "address",
          "name": "sender",
          "type": "address"
        }
      ],
      "name": "ERC20InvalidSender",
      "type": "error"
    },
    {
      "inputs": [
        {
          "internalType": "address",
          "name": "spender",
          "type": "address"
        }
      ],
      "name": "ERC20InvalidSpender",
      "type": "error"
    },
    {
      "anonymous": false,
      "inputs": [
        {
          "indexed": true,
          "internalType": "address",
          "name": "owner",
          "type": "address"
        },
        {
          "indexed": true,
          "internalType": "address",
          "name": "spender",
          "type": "address"
        },
        {
          "indexed": false,
          "internalType": "uint256",
          "name": "value",
          "type": "uint256"
        }
      ],
      "name": "Approval",
      "type": "event"
    },
    {
      "anonymous": false,
      "inputs": [
        {
          "indexed": true,
          "internalType": "address",
          "name": "from",
          "type": "address"
        },
        {
          "indexed": true,
          "internalType": "address",
          "name": "to",
          "type": "address"
        },
        {
          "indexed": false,
          "internalType": "uint256",
          "name": "amount",
          "type": "uint256"
        },
        {
          "indexed": false,
          "internalType": "string",
          "name": "longitude",
          "type": "string"
        },
        {
          "indexed": false,
          "internalType": "string",
          "name": "latitude",
          "type": "string"
        },
        {
          "indexed": false,
          "internalType": "string",
          "name": "message",
          "type": "string"
        }
      ],
      "name": "BraGoTransfer",
      "type": "event"
    },
    {
      "anonymous": false,
      "inputs": [
        {
          "indexed": true,
          "internalType": "address",
          "name": "from",
          "type": "address"
        },
        {
          "indexed": true,
          "internalType": "address",
          "name": "to",
          "type": "address"
        },
        {
          "indexed": false,
          "internalType": "uint256",
          "name": "value",
          "type": "uint256"
        }
      ],
      "name": "Transfer",
      "type": "event"
    },
    {
      "inputs": [
        {
          "internalType": "address",
          "name": "owner",
          "type": "address"
        },
        {
          "internalType": "address",
          "name": "spender",
          "type": "address"
        }
      ],
      "name": "allowance",
      "outputs": [
        {
          "internalType": "uint256",
          "name": "",
          "type": "uint256"
        }
      ],
      "stateMutability": "view",
      "type": "function"
    },
    {
      "inputs": [
        {
          "internalType": "address",
          "name": "spender",
          "type": "address"
        },
        {
          "internalType": "uint256",
          "name": "value",
          "type": "uint256"
        }
      ],
      "name": "approve",
      "outputs": [
        {
          "internalType": "bool",
          "name": "",
          "type": "bool"
        }
      ],
      "stateMutability": "nonpayable",
      "type": "function"
    },
    {
      "inputs": [
        {
          "internalType": "address",
          "name": "account",
          "type": "address"
        }
      ],
      "name": "balanceOf",
      "outputs": [
        {
          "internalType": "uint256",
          "name": "",
          "type": "uint256"
        }
      ],
      "stateMutability": "view",
      "type": "function"
    },
    {
      "inputs": [],
      "name": "decimals",
      "outputs": [
        {
          "internalType": "uint8",
          "name": "",
          "type": "uint8"
        }
      ],
      "stateMutability": "view",
      "type": "function"
    },
    {
      "inputs": [
        {
          "internalType": "address",
          "name": "from",
          "type": "address"
        },
        {
          "internalType": "address",
          "name": "to",
          "type": "address"
        },
        {
          "internalType": "uint256",
          "name": "amount",
          "type": "uint256"
        },
        {
          "internalType": "string",
          "name": "longitude",
          "type": "string"
        },
        {
          "internalType": "string",
          "name": "latitude",
          "type": "string"
        },
        {
          "internalType": "string",
          "name": "message",
          "type": "string"
        }
      ],
      "name": "mint",
      "outputs": [],
      "stateMutability": "nonpayable",
      "type": "function"
    },
    {
      "inputs": [],
      "name": "name",
      "outputs": [
        {
          "internalType": "string",
          "name": "",
          "type": "string"
        }
      ],
      "stateMutability": "view",
      "type": "function"
    },
    {
      "inputs": [],
      "name": "symbol",
      "outputs": [
        {
          "internalType": "string",
          "name": "",
          "type": "string"
        }
      ],
      "stateMutability": "view",
      "type": "function"
    },
    {
      "inputs": [],
      "name": "totalSupply",
      "outputs": [
        {
          "internalType": "uint256",
          "name": "",
          "type": "uint256"
        }
      ],
      "stateMutability": "view",
      "type": "function"
    },
    {
      "inputs": [
        {
          "internalType": "address",
          "name": "to",
          "type": "address"
        },
        {
          "internalType": "uint256",
          "name": "value",
          "type": "uint256"
        }
      ],
      "name": "transfer",
      "outputs": [
        {
          "internalType": "bool",
          "name": "",
          "type": "bool"
        }
      ],
      "stateMutability": "nonpayable",
      "type": "function"
    },
    {
      "inputs": [
        {
          "internalType": "address",
          "name": "from",
          "type": "address"
        },
        {
          "internalType": "address",
          "name": "to",
          "type": "address"
        },
        {
          "internalType": "uint256",
          "name": "value",
          "type": "uint256"
        }
      ],
      "name": "transferFrom",
      "outputs": [
        {
          "internalType": "bool",
          "name": "",
          "type": "bool"
        }
      ],
      "stateMutability": "nonpayable",
      "type": "function"
    }
  ],
  "bytecode": "0x60806040523480156200001157600080fd5b506040518060400160405280600581526020017f427261476f0000000000000000000000000000000000000000000000000000008152506040518060400160405280600281526020017f424700000000000000000000000000000000000000000000000000000000000081525081600390816200008f919062000324565b508060049081620000a1919062000324565b5050506200040b565b600081519050919050565b7f4e487b7100000000000000000000000000000000000000000000000000000000600052604160045260246000fd5b7f4e487b7100000000000000000000000000000000000000000000000000000000600052602260045260246000fd5b600060028204905060018216806200012c57607f821691505b602082108103620001425762000141620000e4565b5b50919050565b60008190508160005260206000209050919050565b60006020601f8301049050919050565b600082821b905092915050565b600060088302620001ac7fffffffffffffffffffffffffffffffffffffffffffffffffffffffffffffffff826200016d565b620001b886836200016d565b95508019841693508086168417925050509392505050565b6000819050919050565b6000819050919050565b600062000205620001ff620001f984620001d0565b620001da565b620001d0565b9050919050565b6000819050919050565b6200022183620001e4565b6200023962000230826200020c565b8484546200017a565b825550505050565b600090565b6200025062000241565b6200025d81848462000216565b505050565b5b8181101562000285576200027960008262000246565b60018101905062000263565b5050565b601f821115620002d4576200029e8162000148565b620002a9846200015d565b81016020851015620002b9578190505b620002d1620002c8856200015d565b83018262000262565b50505b505050565b600082821c905092915050565b6000620002f960001984600802620002d9565b1980831691505092915050565b6000620003148383620002e6565b9150826002028217905092915050565b6200032f82620000aa565b67ffffffffffffffff8111156200034b576200034a620000b5565b5b62000357825462000113565b6200036482828562000289565b600060209050601f8311600181146200039c576000841562000387578287015190505b62000393858262000306565b86555062000403565b601f198416620003ac8662000148565b60005b82811015620003d657848901518255600182019150602085019450602081019050620003af565b86831015620003f65784890151620003f2601f891682620002e6565b8355505b6001600288020188555050505b505050505050565b611179806200041b6000396000f3fe608060405234801561001057600080fd5b506004361061009e5760003560e01c806370a082311161006657806370a082311461015d57806385c1947d1461018d57806395d89b41146101a9578063a9059cbb146101c7578063dd62ed3e146101f75761009e565b806306fdde03146100a3578063095ea7b3146100c157806318160ddd146100f157806323b872dd1461010f578063313ce5671461013f575b600080fd5b6100ab610227565b6040516100b89190610bd8565b60405180910390f35b6100db60048036038101906100d69190610c98565b6102b9565b6040516100e89190610cf3565b60405180910390f35b6100f96102dc565b6040516101069190610d1d565b60405180910390f35b61012960048036038101906101249190610d38565b6102e6565b6040516101369190610cf3565b60405180910390f35b610147610315565b6040516101549190610da7565b60405180910390f35b61017760048036038101906101729190610dc2565b61031e565b6040516101849190610d1d565b60405180910390f35b6101a760048036038101906101a29190610e54565b610366565b005b6101b16103ec565b6040516101be9190610bd8565b60405180910390f35b6101e160048036038101906101dc9190610c98565b61047e565b6040516101ee9190610cf3565b60405180910390f35b610211600480360381019061020c9190610f43565b6104a1565b60405161021e9190610d1d565b60405180910390f35b60606003805461023690610fb2565b80601f016020809104026020016040519081016040528092919081815260200182805461026290610fb2565b80156102af5780601f10610284576101008083540402835291602001916102af565b820191906000526020600020905b81548152906001019060200180831161029257829003601f168201915b5050505050905090565b6000806102c4610528565b90506102d1818585610530565b600191505092915050565b6000600254905090565b6000806102f1610528565b90506102fe858285610542565b6103098585856105d6565b60019150509392505050565b60006012905090565b60008060008373ffffffffffffffffffffffffffffffffffffffff1673ffffffffffffffffffffffffffffffffffffffff168152602001908152602001600020549050919050565b61037088886106ca565b8773ffffffffffffffffffffffffffffffffffffffff168973ffffffffffffffffffffffffffffffffffffffff167f42d8c57b96c1605b02d266488edc9834a56c68ebf5dd28653661a19b5457aec5898989898989896040516103d9979695949392919061101f565b60405180910390a3505050505050505050565b6060600480546103fb90610fb2565b80601f016020809104026020016040519081016040528092919081815260200182805461042790610fb2565b80156104745780601f1061044957610100808354040283529160200191610474565b820191906000526020600020905b81548152906001019060200180831161045757829003601f168201915b5050505050905090565b600080610489610528565b90506104968185856105d6565b600191505092915050565b6000600160008473ffffffffffffffffffffffffffffffffffffffff1673ffffffffffffffffffffffffffffffffffffffff16815260200190815260200160002060008373ffffffffffffffffffffffffffffffffffffffff1673ffffffffffffffffffffffffffffffffffffffff16815260200190815260200160002054905092915050565b600033905090565b61053d838383600161074c565b505050565b600061054e84846104a1565b90507fffffffffffffffffffffffffffffffffffffffffffffffffffffffffffffffff81146105d057818110156105c0578281836040517ffb8f41b20000000000000000000000000000000000000000000000000000000081526004016105b79392919061108e565b60405180910390fd5b6105cf8484848403600061074c565b5b50505050565b600073ffffffffffffffffffffffffffffffffffffffff168373ffffffffffffffffffffffffffffffffffffffff16036106485760006040517f96c6fd1e00000000000000000000000000000000000000000000000000000000815260040161063f91906110c5565b60405180910390fd5b600073ffffffffffffffffffffffffffffffffffffffff168273ffffffffffffffffffffffffffffffffffffffff16036106ba5760006040517fec442f050000000000000000000000000000000000000000000000000000000081526004016106b191906110c5565b60405180910390fd5b6106c5838383610923565b505050565b600073ffffffffffffffffffffffffffffffffffffffff168273ffffffffffffffffffffffffffffffffffffffff160361073c5760006040517fec442f0500000000000000000000000000000000000000000000000000000000815260040161073391906110c5565b60405180910390fd5b61074860008383610923565b5050565b600073ffffffffffffffffffffffffffffffffffffffff168473ffffffffffffffffffffffffffffffffffffffff16036107be5760006040517fe602df050000000000000000000000000000000000000000000000000000000081526004016107b591906110c5565b60405180910390fd5b600073ffffffffffffffffffffffffffffffffffffffff168373ffffffffffffffffffffffffffffffffffffffff16036108305760006040517f94280d6200000000000000000000000000000000000000000000000000000000815260040161082791906110c5565b60405180910390fd5b81600160008673ffffffffffffffffffffffffffffffffffffffff1673ffffffffffffffffffffffffffffffffffffffff16815260200190815260200160002060008573ffffffffffffffffffffffffffffffffffffffff1673ffffffffffffffffffffffffffffffffffffffff16815260200190815260200160002081905550801561091d578273ffffffffffffffffffffffffffffffffffffffff168473ffffffffffffffffffffffffffffffffffffffff167f8c5be1e5ebec7d5bd14f71427d1e84f3dd0314c0f7b2291e5b200ac8c7c3b925846040516109149190610d1d565b60405180910390a35b50505050565b600073ffffffffffffffffffffffffffffffffffffffff168373ffffffffffffffffffffffffffffffffffffffff1603610975578060026000828254610969919061110f565b92505081905550610a48565b60008060008573ffffffffffffffffffffffffffffffffffffffff1673ffffffffffffffffffffffffffffffffffffffff16815260200190815260200160002054905081811015610a01578381836040517fe450d38c0000000000000000000000000000000000000000000000000000000081526004016109f89392919061108e565b60405180910390fd5b8181036000808673ffffffffffffffffffffffffffffffffffffffff1673ffffffffffffffffffffffffffffffffffffffff16815260200190815260200160002081905550505b600073ffffffffffffffffffffffffffffffffffffffff168273ffffffffffffffffffffffffffffffffffffffff1603610a915780600260008282540392505081905550610ade565b806000808473ffffffffffffffffffffffffffffffffffffffff1673ffffffffffffffffffffffffffffffffffffffff168152602001908152602001600020600082825401925050819055505b8173ffffffffffffffffffffffffffffffffffffffff168373ffffffffffffffffffffffffffffffffffffffff167fddf252ad1be2c89b69c2b068fc378daa952ba7f163c4a11628f55a4df523b3ef83604051610b3b9190610d1d565b60405180910390a3505050565b600081519050919050565b600082825260208201905092915050565b60005b83811015610b82578082015181840152602081019050610b67565b60008484015250505050565b6000601f19601f8301169050919050565b6000610baa82610b48565b610bb48185610b53565b9350610bc4818560208601610b64565b610bcd81610b8e565b840191505092915050565b60006020820190508181036000830152610bf28184610b9f565b905092915050565b600080fd5b600080fd5b600073ffffffffffffffffffffffffffffffffffffffff82169050919050565b6000610c2f82610c04565b9050919050565b610c3f81610c24565b8114610c4a57600080fd5b50565b600081359050610c5c81610c36565b92915050565b6000819050919050565b610c7581610c62565b8114610c8057600080fd5b50565b600081359050610c9281610c6c565b92915050565b60008060408385031215610caf57610cae610bfa565b5b6000610cbd85828601610c4d565b9250506020610cce85828601610c83565b9150509250929050565b60008115159050919050565b610ced81610cd8565b82525050565b6000602082019050610d086000830184610ce4565b92915050565b610d1781610c62565b82525050565b6000602082019050610d326000830184610d0e565b92915050565b600080600060608486031215610d5157610d50610bfa565b5b6000610d5f86828701610c4d565b9350506020610d7086828701610c4d565b9250506040610d8186828701610c83565b9150509250925092565b600060ff82169050919050565b610da181610d8b565b82525050565b6000602082019050610dbc6000830184610d98565b92915050565b600060208284031215610dd857610dd7610bfa565b5b6000610de684828501610c4d565b91505092915050565b600080fd5b600080fd5b600080fd5b60008083601f840112610e1457610e13610def565b5b8235905067ffffffffffffffff811115610e3157610e30610df4565b5b602083019150836001820283011115610e4d57610e4c610df9565b5b9250929050565b600080600080600080600080600060c08a8c031215610e7657610e75610bfa565b5b6000610e848c828d01610c4d565b9950506020610e958c828d01610c4d565b9850506040610ea68c828d01610c83565b97505060608a013567ffffffffffffffff811115610ec757610ec6610bff565b5b610ed38c828d01610dfe565b965096505060808a013567ffffffffffffffff811115610ef657610ef5610bff565b5b610f028c828d01610dfe565b945094505060a08a013567ffffffffffffffff811115610f2557610f24610bff565b5b610f318c828d01610dfe565b92509250509295985092959850929598565b60008060408385031215610f5a57610f59610bfa565b5b6000610f6885828601610c4d565b9250506020610f7985828601610c4d565b9150509250929050565b7f4e487b7100000000000000000000000000000000000000000000000000000000600052602260045260246000fd5b60006002820490506001821680610fca57607f821691505b602082108103610fdd57610fdc610f83565b5b50919050565b82818337600083830152505050565b6000610ffe8385610b53565b935061100b838584610fe3565b61101483610b8e565b840190509392505050565b6000608082019050611034600083018a610d0e565b818103602083015261104781888a610ff2565b9050818103604083015261105c818688610ff2565b90508181036060830152611071818486610ff2565b905098975050505050505050565b61108881610c24565b82525050565b60006060820190506110a3600083018661107f565b6110b06020830185610d0e565b6110bd6040830184610d0e565b949350505050565b60006020820190506110da600083018461107f565b92915050565b7f4e487b7100000000000000000000000000000000000000000000000000000000600052601160045260246000fd5b600061111a82610c62565b915061112583610c62565b925082820190508082111561113d5761113c6110e0565b5b9291505056fea26469706673582212206075c8b089517d73f30b61d8c8c4f6b210b9eb2d9024d44f46aaeeea619e32ef64736f6c63430008140033",
  "linkReferences": {},
  "deployedLinkReferences": {}
}